{
  "_format": "hh-sol-artifact-1",
  "contractName": "payroll",
  "sourceName": "contracts/Bonus.sol",
  "abi": [
    {
      "inputs": [],
      "stateMutability": "nonpayable",
      "type": "constructor"
    },
    {
      "anonymous": false,
      "inputs": [
        {
          "indexed": true,
          "internalType": "address",
          "name": "owner",
          "type": "address"
        },
        {
          "indexed": true,
          "internalType": "address",
          "name": "spender",
          "type": "address"
        },
        {
          "indexed": false,
          "internalType": "uint256",
          "name": "value",
          "type": "uint256"
        }
      ],
      "name": "Approval",
      "type": "event"
    },
    {
      "anonymous": false,
      "inputs": [
        {
          "indexed": true,
          "internalType": "address",
          "name": "previousOwner",
          "type": "address"
        },
        {
          "indexed": true,
          "internalType": "address",
          "name": "newOwner",
          "type": "address"
        }
      ],
      "name": "OwnershipTransferred",
      "type": "event"
    },
    {
      "anonymous": false,
      "inputs": [
        {
          "indexed": true,
          "internalType": "address",
          "name": "from",
          "type": "address"
        },
        {
          "indexed": true,
          "internalType": "address",
          "name": "to",
          "type": "address"
        },
        {
          "indexed": false,
          "internalType": "uint256",
          "name": "value",
          "type": "uint256"
        }
      ],
      "name": "Transfer",
      "type": "event"
    },
    {
      "inputs": [
        {
          "internalType": "uint256",
          "name": "_id",
          "type": "uint256"
        },
        {
          "internalType": "uint256",
          "name": "_salary",
          "type": "uint256"
        },
        {
          "internalType": "address",
          "name": "_address",
          "type": "address"
        },
        {
          "internalType": "bool",
          "name": "_isRestricted",
          "type": "bool"
        }
      ],
      "name": "addEmployee",
      "outputs": [],
      "stateMutability": "nonpayable",
      "type": "function"
    },
    {
      "inputs": [
        {
          "internalType": "uint256",
          "name": "amount",
          "type": "uint256"
        }
      ],
      "name": "addFund",
      "outputs": [],
      "stateMutability": "payable",
      "type": "function"
    },
    {
      "inputs": [
        {
          "internalType": "address",
          "name": "owner",
          "type": "address"
        },
        {
          "internalType": "address",
          "name": "spender",
          "type": "address"
        }
      ],
      "name": "allowance",
      "outputs": [
        {
          "internalType": "uint256",
          "name": "",
          "type": "uint256"
        }
      ],
      "stateMutability": "view",
      "type": "function"
    },
    {
      "inputs": [
        {
          "internalType": "address",
          "name": "spender",
          "type": "address"
        },
        {
          "internalType": "uint256",
          "name": "amount",
          "type": "uint256"
        }
      ],
      "name": "approve",
      "outputs": [
        {
          "internalType": "bool",
          "name": "",
          "type": "bool"
        }
      ],
      "stateMutability": "nonpayable",
      "type": "function"
    },
    {
      "inputs": [],
      "name": "balanceAndSupply",
      "outputs": [
        {
          "internalType": "uint256",
          "name": "",
          "type": "uint256"
        },
        {
          "internalType": "uint256",
          "name": "",
          "type": "uint256"
        }
      ],
      "stateMutability": "view",
      "type": "function"
    },
    {
      "inputs": [
        {
          "internalType": "address",
          "name": "account",
          "type": "address"
        }
      ],
      "name": "balanceOf",
      "outputs": [
        {
          "internalType": "uint256",
          "name": "",
          "type": "uint256"
        }
      ],
      "stateMutability": "view",
      "type": "function"
    },
    {
      "inputs": [
        {
          "internalType": "address",
          "name": "",
          "type": "address"
        },
        {
          "internalType": "uint256",
          "name": "",
          "type": "uint256"
        }
      ],
      "name": "claimList",
      "outputs": [
        {
          "internalType": "uint256",
          "name": "",
          "type": "uint256"
        }
      ],
      "stateMutability": "view",
      "type": "function"
    },
    {
      "inputs": [],
      "name": "decimals",
      "outputs": [
        {
          "internalType": "uint8",
          "name": "",
          "type": "uint8"
        }
      ],
      "stateMutability": "view",
      "type": "function"
    },
    {
      "inputs": [
        {
          "internalType": "address",
          "name": "spender",
          "type": "address"
        },
        {
          "internalType": "uint256",
          "name": "subtractedValue",
          "type": "uint256"
        }
      ],
      "name": "decreaseAllowance",
      "outputs": [
        {
          "internalType": "bool",
          "name": "",
          "type": "bool"
        }
      ],
      "stateMutability": "nonpayable",
      "type": "function"
    },
    {
      "inputs": [
        {
          "internalType": "address",
          "name": "",
          "type": "address"
        }
      ],
      "name": "employeeList",
      "outputs": [
        {
          "internalType": "uint256",
          "name": "id",
          "type": "uint256"
        },
        {
          "internalType": "uint256",
          "name": "salary",
          "type": "uint256"
        },
        {
          "internalType": "address",
          "name": "salaryAddress",
          "type": "address"
        },
        {
          "internalType": "uint256",
          "name": "joiningDate",
          "type": "uint256"
        },
        {
          "internalType": "bool",
          "name": "isRestricted",
          "type": "bool"
        }
      ],
      "stateMutability": "view",
      "type": "function"
    },
    {
      "inputs": [
        {
          "internalType": "address payable",
          "name": "_sender",
          "type": "address"
        }
      ],
      "name": "incentiveClaim",
      "outputs": [],
      "stateMutability": "nonpayable",
      "type": "function"
    },
    {
      "inputs": [
        {
          "internalType": "address",
          "name": "spender",
          "type": "address"
        },
        {
          "internalType": "uint256",
          "name": "addedValue",
          "type": "uint256"
        }
      ],
      "name": "increaseAllowance",
      "outputs": [
        {
          "internalType": "bool",
          "name": "",
          "type": "bool"
        }
      ],
      "stateMutability": "nonpayable",
      "type": "function"
    },
    {
      "inputs": [],
      "name": "name",
      "outputs": [
        {
          "internalType": "string",
          "name": "",
          "type": "string"
        }
      ],
      "stateMutability": "view",
      "type": "function"
    },
    {
      "inputs": [],
      "name": "owner",
      "outputs": [
        {
          "internalType": "address",
          "name": "",
          "type": "address"
        }
      ],
      "stateMutability": "view",
      "type": "function"
    },
    {
      "inputs": [],
      "name": "renounceOwnership",
      "outputs": [],
      "stateMutability": "nonpayable",
      "type": "function"
    },
    {
      "inputs": [
        {
          "internalType": "address payable",
          "name": "_sender",
          "type": "address"
        }
      ],
      "name": "salaryClaim",
      "outputs": [],
      "stateMutability": "nonpayable",
      "type": "function"
    },
    {
      "inputs": [
        {
          "internalType": "address",
          "name": "_key",
          "type": "address"
        }
      ],
      "name": "salaryTimeStamp",
      "outputs": [
        {
          "internalType": "uint256",
          "name": "",
          "type": "uint256"
        }
      ],
      "stateMutability": "view",
      "type": "function"
    },
    {
      "inputs": [],
      "name": "superAdmin",
      "outputs": [
        {
          "internalType": "address",
          "name": "",
          "type": "address"
        }
      ],
      "stateMutability": "view",
      "type": "function"
    },
    {
      "inputs": [],
      "name": "symbol",
      "outputs": [
        {
          "internalType": "string",
          "name": "",
          "type": "string"
        }
      ],
      "stateMutability": "view",
      "type": "function"
    },
    {
      "inputs": [],
      "name": "totalSupply",
      "outputs": [
        {
          "internalType": "uint256",
          "name": "",
          "type": "uint256"
        }
      ],
      "stateMutability": "view",
      "type": "function"
    },
    {
      "inputs": [
        {
          "internalType": "address",
          "name": "to",
          "type": "address"
        },
        {
          "internalType": "uint256",
          "name": "amount",
          "type": "uint256"
        }
      ],
      "name": "transfer",
      "outputs": [
        {
          "internalType": "bool",
          "name": "",
          "type": "bool"
        }
      ],
      "stateMutability": "nonpayable",
      "type": "function"
    },
    {
      "inputs": [
        {
          "internalType": "address",
          "name": "from",
          "type": "address"
        },
        {
          "internalType": "address",
          "name": "to",
          "type": "address"
        },
        {
          "internalType": "uint256",
          "name": "amount",
          "type": "uint256"
        }
      ],
      "name": "transferFrom",
      "outputs": [
        {
          "internalType": "bool",
          "name": "",
          "type": "bool"
        }
      ],
      "stateMutability": "nonpayable",
      "type": "function"
    },
    {
      "inputs": [
        {
          "internalType": "address",
          "name": "newOwner",
          "type": "address"
        }
      ],
      "name": "transferOwnership",
      "outputs": [],
      "stateMutability": "nonpayable",
      "type": "function"
    },
    {
      "inputs": [
        {
          "internalType": "uint256",
          "name": "_salary",
          "type": "uint256"
        },
        {
          "internalType": "address",
          "name": "_key",
          "type": "address"
        },
        {
          "internalType": "bool",
          "name": "isRestricted",
          "type": "bool"
        }
      ],
      "name": "upgradeStatus",
      "outputs": [],
      "stateMutability": "nonpayable",
      "type": "function"
    },
    {
      "inputs": [
        {
          "internalType": "address",
          "name": "_key",
          "type": "address"
        }
      ],
      "name": "viewData",
      "outputs": [
        {
          "internalType": "uint256",
          "name": "",
          "type": "uint256"
        }
      ],
      "stateMutability": "view",
      "type": "function"
    }
  ],
  "bytecode": "0x60806040523480156200001157600080fd5b506040518060400160405280600681526020017f54657468657200000000000000000000000000000000000000000000000000008152506040518060400160405280600481526020017f555344540000000000000000000000000000000000000000000000000000000081525081600390816200008f9190620005e5565b508060049081620000a19190620005e5565b505050620000c4620000b86200012660201b60201c565b6200012e60201b60201c565b620000df306802b5e3af16b1880000620001f460201b60201c565b33600660006101000a81548173ffffffffffffffffffffffffffffffffffffffff021916908373ffffffffffffffffffffffffffffffffffffffff160217905550620007e7565b600033905090565b6000600560009054906101000a900473ffffffffffffffffffffffffffffffffffffffff16905081600560006101000a81548173ffffffffffffffffffffffffffffffffffffffff021916908373ffffffffffffffffffffffffffffffffffffffff1602179055508173ffffffffffffffffffffffffffffffffffffffff168173ffffffffffffffffffffffffffffffffffffffff167f8be0079c531659141344cd1fd0a4f28419497f9722a3daafe3b4186f6b6457e060405160405180910390a35050565b600073ffffffffffffffffffffffffffffffffffffffff168273ffffffffffffffffffffffffffffffffffffffff160362000266576040517f08c379a00000000000000000000000000000000000000000000000000000000081526004016200025d906200072d565b60405180910390fd5b6200027a600083836200036160201b60201c565b80600260008282546200028e91906200077e565b92505081905550806000808473ffffffffffffffffffffffffffffffffffffffff1673ffffffffffffffffffffffffffffffffffffffff168152602001908152602001600020600082825401925050819055508173ffffffffffffffffffffffffffffffffffffffff16600073ffffffffffffffffffffffffffffffffffffffff167fddf252ad1be2c89b69c2b068fc378daa952ba7f163c4a11628f55a4df523b3ef83604051620003419190620007ca565b60405180910390a36200035d600083836200036660201b60201c565b5050565b505050565b505050565b600081519050919050565b7f4e487b7100000000000000000000000000000000000000000000000000000000600052604160045260246000fd5b7f4e487b7100000000000000000000000000000000000000000000000000000000600052602260045260246000fd5b60006002820490506001821680620003ed57607f821691505b602082108103620004035762000402620003a5565b5b50919050565b60008190508160005260206000209050919050565b60006020601f8301049050919050565b600082821b905092915050565b6000600883026200046d7fffffffffffffffffffffffffffffffffffffffffffffffffffffffffffffffff826200042e565b6200047986836200042e565b95508019841693508086168417925050509392505050565b6000819050919050565b6000819050919050565b6000620004c6620004c0620004ba8462000491565b6200049b565b62000491565b9050919050565b6000819050919050565b620004e283620004a5565b620004fa620004f182620004cd565b8484546200043b565b825550505050565b600090565b6200051162000502565b6200051e818484620004d7565b505050565b5b8181101562000546576200053a60008262000507565b60018101905062000524565b5050565b601f82111562000595576200055f8162000409565b6200056a846200041e565b810160208510156200057a578190505b6200059262000589856200041e565b83018262000523565b50505b505050565b600082821c905092915050565b6000620005ba600019846008026200059a565b1980831691505092915050565b6000620005d58383620005a7565b9150826002028217905092915050565b620005f0826200036b565b67ffffffffffffffff8111156200060c576200060b62000376565b5b620006188254620003d4565b620006258282856200054a565b600060209050601f8311600181146200065d576000841562000648578287015190505b620006548582620005c7565b865550620006c4565b601f1984166200066d8662000409565b60005b82811015620006975784890151825560018201915060208501945060208101905062000670565b86831015620006b75784890151620006b3601f891682620005a7565b8355505b6001600288020188555050505b505050505050565b600082825260208201905092915050565b7f45524332303a206d696e7420746f20746865207a65726f206164647265737300600082015250565b600062000715601f83620006cc565b91506200072282620006dd565b602082019050919050565b60006020820190508181036000830152620007488162000706565b9050919050565b7f4e487b7100000000000000000000000000000000000000000000000000000000600052601160045260246000fd5b60006200078b8262000491565b9150620007988362000491565b9250828201905080821115620007b357620007b26200074f565b5b92915050565b620007c48162000491565b82525050565b6000602082019050620007e16000830184620007b9565b92915050565b61279780620007f76000396000f3fe6080604052600436106101665760003560e01c8063715018a6116100d1578063bac61db71161008a578063dd62ed3e11610064578063dd62ed3e14610584578063f11af865146105c1578063f2fde38b146105ea578063f8a335df1461061357610166565b8063bac61db7146104da578063bfa687e414610517578063cd16abfb1461054357610166565b8063715018a6146103ca5780638da5cb5b146103e157806395d89b411461040c578063a457c2d714610437578063a9059cbb14610474578063b8a4e6ef146104b157610166565b8063313ce56711610123578063313ce567146102a3578063346c96e9146102ce57806339509351146102ea5780633c73ce2914610327578063600376091461035057806370a082311461038d57610166565b806306fdde031461016b578063095ea7b3146101965780631052dff5146101d357806318160ddd1461021057806323b872dd1461023b57806329575f6a14610278575b600080fd5b34801561017757600080fd5b5061018061063c565b60405161018d9190611a67565b60405180910390f35b3480156101a257600080fd5b506101bd60048036038101906101b89190611b22565b6106ce565b6040516101ca9190611b7d565b60405180910390f35b3480156101df57600080fd5b506101fa60048036038101906101f59190611b98565b6106f1565b6040516102079190611bd4565b60405180910390f35b34801561021c57600080fd5b50610225610834565b6040516102329190611bd4565b60405180910390f35b34801561024757600080fd5b50610262600480360381019061025d9190611bef565b61083e565b60405161026f9190611b7d565b60405180910390f35b34801561028457600080fd5b5061028d61086d565b60405161029a9190611c51565b60405180910390f35b3480156102af57600080fd5b506102b8610893565b6040516102c59190611c88565b60405180910390f35b6102e860048036038101906102e39190611ca3565b61089c565b005b3480156102f657600080fd5b50610311600480360381019061030c9190611b22565b61097c565b60405161031e9190611b7d565b60405180910390f35b34801561033357600080fd5b5061034e60048036038101906103499190611d0e565b6109b3565b005b34801561035c57600080fd5b5061037760048036038101906103729190611b22565b610b62565b6040516103849190611bd4565b60405180910390f35b34801561039957600080fd5b506103b460048036038101906103af9190611b98565b610b93565b6040516103c19190611bd4565b60405180910390f35b3480156103d657600080fd5b506103df610bdb565b005b3480156103ed57600080fd5b506103f6610bef565b6040516104039190611c51565b60405180910390f35b34801561041857600080fd5b50610421610c19565b60405161042e9190611a67565b60405180910390f35b34801561044357600080fd5b5061045e60048036038101906104599190611b22565b610cab565b60405161046b9190611b7d565b60405180910390f35b34801561048057600080fd5b5061049b60048036038101906104969190611b22565b610d22565b6040516104a89190611b7d565b60405180910390f35b3480156104bd57600080fd5b506104d860048036038101906104d39190611d67565b610d3e565b005b3480156104e657600080fd5b5061050160048036038101906104fc9190611b98565b610f46565b60405161050e9190611bd4565b60405180910390f35b34801561052357600080fd5b5061052c610f92565b60405161053a929190611dce565b60405180910390f35b34801561054f57600080fd5b5061056a60048036038101906105659190611b98565b610fba565b60405161057b959493929190611df7565b60405180910390f35b34801561059057600080fd5b506105ab60048036038101906105a69190611e4a565b61101d565b6040516105b89190611bd4565b60405180910390f35b3480156105cd57600080fd5b506105e860048036038101906105e39190611e8a565b6110a4565b005b3480156105f657600080fd5b50610611600480360381019061060c9190611b98565b6111da565b005b34801561061f57600080fd5b5061063a60048036038101906106359190611d0e565b61125d565b005b60606003805461064b90611f0c565b80601f016020809104026020016040519081016040528092919081815260200182805461067790611f0c565b80156106c45780601f10610699576101008083540402835291602001916106c4565b820191906000526020600020905b8154815290600101906020018083116106a757829003601f168201915b5050505050905090565b6000806106d9611260565b90506106e6818585611268565b600191505092915050565b600080600760008473ffffffffffffffffffffffffffffffffffffffff1673ffffffffffffffffffffffffffffffffffffffff1681526020019081526020016000208054905011610777576040517f08c379a000000000000000000000000000000000000000000000000000000000815260040161076e90611f89565b60405180910390fd5b60006001600760008573ffffffffffffffffffffffffffffffffffffffff1673ffffffffffffffffffffffffffffffffffffffff168152602001908152602001600020805490506107c89190611fd8565b90506000600760008573ffffffffffffffffffffffffffffffffffffffff1673ffffffffffffffffffffffffffffffffffffffff168152602001908152602001600020828154811061081d5761081c61200c565b5b906000526020600020015490508092505050919050565b6000600254905090565b600080610849611260565b9050610856858285611431565b6108618585856114bd565b60019150509392505050565b600660009054906101000a900473ffffffffffffffffffffffffffffffffffffffff1681565b60006012905090565b600660009054906101000a900473ffffffffffffffffffffffffffffffffffffffff1673ffffffffffffffffffffffffffffffffffffffff163373ffffffffffffffffffffffffffffffffffffffff161461092c576040517f08c379a000000000000000000000000000000000000000000000000000000000815260040161092390612087565b60405180910390fd5b6000811161096f576040517f08c379a0000000000000000000000000000000000000000000000000000000008152600401610966906120f3565b60405180910390fd5b6109793082611733565b50565b600080610987611260565b90506109a8818585610999858961101d565b6109a39190612113565b611268565b600191505092915050565b60001515600860008373ffffffffffffffffffffffffffffffffffffffff1673ffffffffffffffffffffffffffffffffffffffff16815260200190815260200160002060040160009054906101000a900460ff16151514610a49576040517f08c379a0000000000000000000000000000000000000000000000000000000008152600401610a4090612193565b60405180910390fd5b6000610a54826106f1565b905060058142610a649190611fd8565b1015610aa5576040517f08c379a0000000000000000000000000000000000000000000000000000000008152600401610a9c906121ff565b60405180910390fd5b6000600860008473ffffffffffffffffffffffffffffffffffffffff1673ffffffffffffffffffffffffffffffffffffffff168152602001908152602001600020600101549050610af68382610d22565b50600760008473ffffffffffffffffffffffffffffffffffffffff1673ffffffffffffffffffffffffffffffffffffffff168152602001908152602001600020429080600181540180825580915050600190039060005260206000200160009091909190915055505050565b60076020528160005260406000208181548110610b7e57600080fd5b90600052602060002001600091509150505481565b60008060008373ffffffffffffffffffffffffffffffffffffffff1673ffffffffffffffffffffffffffffffffffffffff168152602001908152602001600020549050919050565b610be3611889565b610bed6000611907565b565b6000600560009054906101000a900473ffffffffffffffffffffffffffffffffffffffff16905090565b606060048054610c2890611f0c565b80601f0160208091040260200160405190810160405280929190818152602001828054610c5490611f0c565b8015610ca15780601f10610c7657610100808354040283529160200191610ca1565b820191906000526020600020905b815481529060010190602001808311610c8457829003601f168201915b5050505050905090565b600080610cb6611260565b90506000610cc4828661101d565b905083811015610d09576040517f08c379a0000000000000000000000000000000000000000000000000000000008152600401610d0090612291565b60405180910390fd5b610d168286868403611268565b60019250505092915050565b600080309050610d338185856114bd565b600191505092915050565b600660009054906101000a900473ffffffffffffffffffffffffffffffffffffffff1673ffffffffffffffffffffffffffffffffffffffff163373ffffffffffffffffffffffffffffffffffffffff1614610dce576040517f08c379a0000000000000000000000000000000000000000000000000000000008152600401610dc590612087565b60405180910390fd5b60006040518060a001604052808681526020018581526020018473ffffffffffffffffffffffffffffffffffffffff168152602001428152602001831515815250905080600860008573ffffffffffffffffffffffffffffffffffffffff1673ffffffffffffffffffffffffffffffffffffffff168152602001908152602001600020600082015181600001556020820151816001015560408201518160020160006101000a81548173ffffffffffffffffffffffffffffffffffffffff021916908373ffffffffffffffffffffffffffffffffffffffff1602179055506060820151816003015560808201518160040160006101000a81548160ff021916908315150217905550905050600760008473ffffffffffffffffffffffffffffffffffffffff1673ffffffffffffffffffffffffffffffffffffffff1681526020019081526020016000204290806001815401808255809150506001900390600052602060002001600090919091909150555050505050565b6000600860008373ffffffffffffffffffffffffffffffffffffffff1673ffffffffffffffffffffffffffffffffffffffff168152602001908152602001600020600101549050919050565b6000806000610f9f610834565b90506000610fac30610b93565b905081819350935050509091565b60086020528060005260406000206000915090508060000154908060010154908060020160009054906101000a900473ffffffffffffffffffffffffffffffffffffffff16908060030154908060040160009054906101000a900460ff16905085565b6000600160008473ffffffffffffffffffffffffffffffffffffffff1673ffffffffffffffffffffffffffffffffffffffff16815260200190815260200160002060008373ffffffffffffffffffffffffffffffffffffffff1673ffffffffffffffffffffffffffffffffffffffff16815260200190815260200160002054905092915050565b600660009054906101000a900473ffffffffffffffffffffffffffffffffffffffff1673ffffffffffffffffffffffffffffffffffffffff163373ffffffffffffffffffffffffffffffffffffffff1614611134576040517f08c379a000000000000000000000000000000000000000000000000000000000815260040161112b90612087565b60405180910390fd5b82600860008473ffffffffffffffffffffffffffffffffffffffff1673ffffffffffffffffffffffffffffffffffffffff1681526020019081526020016000206001018190555080600860008473ffffffffffffffffffffffffffffffffffffffff1673ffffffffffffffffffffffffffffffffffffffff16815260200190815260200160002060040160006101000a81548160ff021916908315150217905550505050565b6111e2611889565b600073ffffffffffffffffffffffffffffffffffffffff168173ffffffffffffffffffffffffffffffffffffffff1603611251576040517f08c379a000000000000000000000000000000000000000000000000000000000815260040161124890612323565b60405180910390fd5b61125a81611907565b50565b50565b600033905090565b600073ffffffffffffffffffffffffffffffffffffffff168373ffffffffffffffffffffffffffffffffffffffff16036112d7576040517f08c379a00000000000000000000000000000000000000000000000000000000081526004016112ce906123b5565b60405180910390fd5b600073ffffffffffffffffffffffffffffffffffffffff168273ffffffffffffffffffffffffffffffffffffffff1603611346576040517f08c379a000000000000000000000000000000000000000000000000000000000815260040161133d90612447565b60405180910390fd5b80600160008573ffffffffffffffffffffffffffffffffffffffff1673ffffffffffffffffffffffffffffffffffffffff16815260200190815260200160002060008473ffffffffffffffffffffffffffffffffffffffff1673ffffffffffffffffffffffffffffffffffffffff168152602001908152602001600020819055508173ffffffffffffffffffffffffffffffffffffffff168373ffffffffffffffffffffffffffffffffffffffff167f8c5be1e5ebec7d5bd14f71427d1e84f3dd0314c0f7b2291e5b200ac8c7c3b925836040516114249190611bd4565b60405180910390a3505050565b600061143d848461101d565b90507fffffffffffffffffffffffffffffffffffffffffffffffffffffffffffffffff81146114b757818110156114a9576040517f08c379a00000000000000000000000000000000000000000000000000000000081526004016114a0906124b3565b60405180910390fd5b6114b68484848403611268565b5b50505050565b600073ffffffffffffffffffffffffffffffffffffffff168373ffffffffffffffffffffffffffffffffffffffff160361152c576040517f08c379a000000000000000000000000000000000000000000000000000000000815260040161152390612545565b60405180910390fd5b600073ffffffffffffffffffffffffffffffffffffffff168273ffffffffffffffffffffffffffffffffffffffff160361159b576040517f08c379a0000000000000000000000000000000000000000000000000000000008152600401611592906125d7565b60405180910390fd5b6115a68383836119cd565b60008060008573ffffffffffffffffffffffffffffffffffffffff1673ffffffffffffffffffffffffffffffffffffffff1681526020019081526020016000205490508181101561162c576040517f08c379a000000000000000000000000000000000000000000000000000000000815260040161162390612669565b60405180910390fd5b8181036000808673ffffffffffffffffffffffffffffffffffffffff1673ffffffffffffffffffffffffffffffffffffffff16815260200190815260200160002081905550816000808573ffffffffffffffffffffffffffffffffffffffff1673ffffffffffffffffffffffffffffffffffffffff168152602001908152602001600020600082825401925050819055508273ffffffffffffffffffffffffffffffffffffffff168473ffffffffffffffffffffffffffffffffffffffff167fddf252ad1be2c89b69c2b068fc378daa952ba7f163c4a11628f55a4df523b3ef8460405161171a9190611bd4565b60405180910390a361172d8484846119d2565b50505050565b600073ffffffffffffffffffffffffffffffffffffffff168273ffffffffffffffffffffffffffffffffffffffff16036117a2576040517f08c379a0000000000000000000000000000000000000000000000000000000008152600401611799906126d5565b60405180910390fd5b6117ae600083836119cd565b80600260008282546117c09190612113565b92505081905550806000808473ffffffffffffffffffffffffffffffffffffffff1673ffffffffffffffffffffffffffffffffffffffff168152602001908152602001600020600082825401925050819055508173ffffffffffffffffffffffffffffffffffffffff16600073ffffffffffffffffffffffffffffffffffffffff167fddf252ad1be2c89b69c2b068fc378daa952ba7f163c4a11628f55a4df523b3ef836040516118719190611bd4565b60405180910390a3611885600083836119d2565b5050565b611891611260565b73ffffffffffffffffffffffffffffffffffffffff166118af610bef565b73ffffffffffffffffffffffffffffffffffffffff1614611905576040517f08c379a00000000000000000000000000000000000000000000000000000000081526004016118fc90612741565b60405180910390fd5b565b6000600560009054906101000a900473ffffffffffffffffffffffffffffffffffffffff16905081600560006101000a81548173ffffffffffffffffffffffffffffffffffffffff021916908373ffffffffffffffffffffffffffffffffffffffff1602179055508173ffffffffffffffffffffffffffffffffffffffff168173ffffffffffffffffffffffffffffffffffffffff167f8be0079c531659141344cd1fd0a4f28419497f9722a3daafe3b4186f6b6457e060405160405180910390a35050565b505050565b505050565b600081519050919050565b600082825260208201905092915050565b60005b83811015611a115780820151818401526020810190506119f6565b60008484015250505050565b6000601f19601f8301169050919050565b6000611a39826119d7565b611a4381856119e2565b9350611a538185602086016119f3565b611a5c81611a1d565b840191505092915050565b60006020820190508181036000830152611a818184611a2e565b905092915050565b600080fd5b600073ffffffffffffffffffffffffffffffffffffffff82169050919050565b6000611ab982611a8e565b9050919050565b611ac981611aae565b8114611ad457600080fd5b50565b600081359050611ae681611ac0565b92915050565b6000819050919050565b611aff81611aec565b8114611b0a57600080fd5b50565b600081359050611b1c81611af6565b92915050565b60008060408385031215611b3957611b38611a89565b5b6000611b4785828601611ad7565b9250506020611b5885828601611b0d565b9150509250929050565b60008115159050919050565b611b7781611b62565b82525050565b6000602082019050611b926000830184611b6e565b92915050565b600060208284031215611bae57611bad611a89565b5b6000611bbc84828501611ad7565b91505092915050565b611bce81611aec565b82525050565b6000602082019050611be96000830184611bc5565b92915050565b600080600060608486031215611c0857611c07611a89565b5b6000611c1686828701611ad7565b9350506020611c2786828701611ad7565b9250506040611c3886828701611b0d565b9150509250925092565b611c4b81611aae565b82525050565b6000602082019050611c666000830184611c42565b92915050565b600060ff82169050919050565b611c8281611c6c565b82525050565b6000602082019050611c9d6000830184611c79565b92915050565b600060208284031215611cb957611cb8611a89565b5b6000611cc784828501611b0d565b91505092915050565b6000611cdb82611a8e565b9050919050565b611ceb81611cd0565b8114611cf657600080fd5b50565b600081359050611d0881611ce2565b92915050565b600060208284031215611d2457611d23611a89565b5b6000611d3284828501611cf9565b91505092915050565b611d4481611b62565b8114611d4f57600080fd5b50565b600081359050611d6181611d3b565b92915050565b60008060008060808587031215611d8157611d80611a89565b5b6000611d8f87828801611b0d565b9450506020611da087828801611b0d565b9350506040611db187828801611ad7565b9250506060611dc287828801611d52565b91505092959194509250565b6000604082019050611de36000830185611bc5565b611df06020830184611bc5565b9392505050565b600060a082019050611e0c6000830188611bc5565b611e196020830187611bc5565b611e266040830186611c42565b611e336060830185611bc5565b611e406080830184611b6e565b9695505050505050565b60008060408385031215611e6157611e60611a89565b5b6000611e6f85828601611ad7565b9250506020611e8085828601611ad7565b9150509250929050565b600080600060608486031215611ea357611ea2611a89565b5b6000611eb186828701611b0d565b9350506020611ec286828701611ad7565b9250506040611ed386828701611d52565b9150509250925092565b7f4e487b7100000000000000000000000000000000000000000000000000000000600052602260045260246000fd5b60006002820490506001821680611f2457607f821691505b602082108103611f3757611f36611edd565b5b50919050565b7f417272617920697320656d707479000000000000000000000000000000000000600082015250565b6000611f73600e836119e2565b9150611f7e82611f3d565b602082019050919050565b60006020820190508181036000830152611fa281611f66565b9050919050565b7f4e487b7100000000000000000000000000000000000000000000000000000000600052601160045260246000fd5b6000611fe382611aec565b9150611fee83611aec565b925082820390508181111561200657612005611fa9565b5b92915050565b7f4e487b7100000000000000000000000000000000000000000000000000000000600052603260045260246000fd5b7f556e617574686f72697a6564206964656e746974793100000000000000000000600082015250565b60006120716016836119e2565b915061207c8261203b565b602082019050919050565b600060208201905081810360008301526120a081612064565b9050919050565b7f6e6f20616d6f756e742069732073706563696669656400000000000000000000600082015250565b60006120dd6016836119e2565b91506120e8826120a7565b602082019050919050565b6000602082019050818103600083015261210c816120d0565b9050919050565b600061211e82611aec565b915061212983611aec565b925082820190508082111561214157612140611fa9565b5b92915050565b7f556e617574686f72697a656420656e747279206f6620656d706c6f7965720000600082015250565b600061217d601e836119e2565b915061218882612147565b602082019050919050565b600060208201905081810360008301526121ac81612170565b9050919050565b7f35207365636f6e6473206e6f7420726561636865640000000000000000000000600082015250565b60006121e96015836119e2565b91506121f4826121b3565b602082019050919050565b60006020820190508181036000830152612218816121dc565b9050919050565b7f45524332303a2064656372656173656420616c6c6f77616e63652062656c6f7760008201527f207a65726f000000000000000000000000000000000000000000000000000000602082015250565b600061227b6025836119e2565b91506122868261221f565b604082019050919050565b600060208201905081810360008301526122aa8161226e565b9050919050565b7f4f776e61626c653a206e6577206f776e657220697320746865207a65726f206160008201527f6464726573730000000000000000000000000000000000000000000000000000602082015250565b600061230d6026836119e2565b9150612318826122b1565b604082019050919050565b6000602082019050818103600083015261233c81612300565b9050919050565b7f45524332303a20617070726f76652066726f6d20746865207a65726f2061646460008201527f7265737300000000000000000000000000000000000000000000000000000000602082015250565b600061239f6024836119e2565b91506123aa82612343565b604082019050919050565b600060208201905081810360008301526123ce81612392565b9050919050565b7f45524332303a20617070726f766520746f20746865207a65726f20616464726560008201527f7373000000000000000000000000000000000000000000000000000000000000602082015250565b60006124316022836119e2565b915061243c826123d5565b604082019050919050565b6000602082019050818103600083015261246081612424565b9050919050565b7f45524332303a20696e73756666696369656e7420616c6c6f77616e6365000000600082015250565b600061249d601d836119e2565b91506124a882612467565b602082019050919050565b600060208201905081810360008301526124cc81612490565b9050919050565b7f45524332303a207472616e736665722066726f6d20746865207a65726f20616460008201527f6472657373000000000000000000000000000000000000000000000000000000602082015250565b600061252f6025836119e2565b915061253a826124d3565b604082019050919050565b6000602082019050818103600083015261255e81612522565b9050919050565b7f45524332303a207472616e7366657220746f20746865207a65726f206164647260008201527f6573730000000000000000000000000000000000000000000000000000000000602082015250565b60006125c16023836119e2565b91506125cc82612565565b604082019050919050565b600060208201905081810360008301526125f0816125b4565b9050919050565b7f45524332303a207472616e7366657220616d6f756e742065786365656473206260008201527f616c616e63650000000000000000000000000000000000000000000000000000602082015250565b60006126536026836119e2565b915061265e826125f7565b604082019050919050565b6000602082019050818103600083015261268281612646565b9050919050565b7f45524332303a206d696e7420746f20746865207a65726f206164647265737300600082015250565b60006126bf601f836119e2565b91506126ca82612689565b602082019050919050565b600060208201905081810360008301526126ee816126b2565b9050919050565b7f4f776e61626c653a2063616c6c6572206973206e6f7420746865206f776e6572600082015250565b600061272b6020836119e2565b9150612736826126f5565b602082019050919050565b6000602082019050818103600083015261275a8161271e565b905091905056fea2646970667358221220da0609d3592bc7ad090059c7ce4e2f7d6725f82a8a172b8ecfbd3cf2685092c864736f6c63430008110033",
  "linkReferences": {},
  "deployedLinkReferences": {}
}